{
  "_format": "hh-sol-artifact-1",
  "contractName": "DeFIRELaunchPool",
  "sourceName": "contracts/presale.sol",
  "abi": [
    {
      "inputs": [
        {
          "internalType": "address",
          "name": "_pSaleToken",
          "type": "address"
        },
        {
          "internalType": "address",
          "name": "_pSaleTokenDegen",
          "type": "address"
        },
        {
          "internalType": "address",
          "name": "_treasuryPDeFIRE",
          "type": "address"
        },
        {
          "internalType": "address",
          "name": "_investToken",
          "type": "address"
        },
        {
          "internalType": "uint256",
          "name": "_startTime",
          "type": "uint256"
        },
        {
          "internalType": "uint256",
          "name": "_epochTime",
          "type": "uint256"
        },
        {
          "internalType": "uint256",
          "name": "_duration",
          "type": "uint256"
        },
        {
          "internalType": "uint256",
          "name": "_pTokenPrice",
          "type": "uint256"
        },
        {
          "internalType": "uint256",
          "name": "_dTokenPrice",
          "type": "uint256"
        }
      ],
      "stateMutability": "nonpayable",
      "type": "constructor"
    },
    {
      "anonymous": false,
      "inputs": [
        {
          "indexed": true,
          "internalType": "address",
          "name": "previousOwner",
          "type": "address"
        },
        {
          "indexed": true,
          "internalType": "address",
          "name": "newOwner",
          "type": "address"
        }
      ],
      "name": "OwnershipTransferred",
      "type": "event"
    },
    {
      "anonymous": false,
      "inputs": [
        {
          "indexed": false,
          "internalType": "address[]",
          "name": "bulk",
          "type": "address[]"
        }
      ],
      "name": "addressBulkWhitelisted",
      "type": "event"
    },
    {
      "anonymous": false,
      "inputs": [
        {
          "indexed": false,
          "internalType": "address",
          "name": "sender",
          "type": "address"
        }
      ],
      "name": "addressRemoved",
      "type": "event"
    },
    {
      "anonymous": false,
      "inputs": [
        {
          "indexed": false,
          "internalType": "address",
          "name": "sender",
          "type": "address"
        }
      ],
      "name": "addressWhitelisted",
      "type": "event"
    },
    {
      "anonymous": false,
      "inputs": [
        {
          "indexed": false,
          "internalType": "address",
          "name": "sender",
          "type": "address"
        },
        {
          "indexed": false,
          "internalType": "uint256",
          "name": "investamount",
          "type": "uint256"
        },
        {
          "indexed": false,
          "internalType": "uint256",
          "name": "ddefireamount",
          "type": "uint256"
        }
      ],
      "name": "dFAIRPurchased",
      "type": "event"
    },
    {
      "anonymous": false,
      "inputs": [
        {
          "indexed": false,
          "internalType": "address",
          "name": "sender",
          "type": "address"
        },
        {
          "indexed": false,
          "internalType": "uint256",
          "name": "investamount",
          "type": "uint256"
        },
        {
          "indexed": false,
          "internalType": "uint256",
          "name": "pdefireamount",
          "type": "uint256"
        }
      ],
      "name": "pFAIRPurchased",
      "type": "event"
    },
    {
      "anonymous": false,
      "inputs": [
        {
          "indexed": false,
          "internalType": "uint256",
          "name": "investmentTotal",
          "type": "uint256"
        }
      ],
      "name": "withdrawInvestment",
      "type": "event"
    },
    {
      "anonymous": false,
      "inputs": [
        {
          "indexed": false,
          "internalType": "uint256",
          "name": "pDeFIRELeft",
          "type": "uint256"
        },
        {
          "indexed": false,
          "internalType": "uint256",
          "name": "dDeFIRELeft",
          "type": "uint256"
        }
      ],
      "name": "withdrawUnclaimed",
      "type": "event"
    },
    {
      "inputs": [],
      "name": "PreSaleTokenDegenAvailable",
      "outputs": [
        {
          "internalType": "uint256",
          "name": "",
          "type": "uint256"
        }
      ],
      "stateMutability": "view",
      "type": "function"
    },
    {
      "inputs": [],
      "name": "PreSaleTokenRegularAvailable",
      "outputs": [
        {
          "internalType": "uint256",
          "name": "",
          "type": "uint256"
        }
      ],
      "stateMutability": "view",
      "type": "function"
    },
    {
      "inputs": [
        {
          "internalType": "address[]",
          "name": "_addresses",
          "type": "address[]"
        }
      ],
      "name": "addMultipleWhitelist",
      "outputs": [],
      "stateMutability": "nonpayable",
      "type": "function"
    },
    {
      "inputs": [
        {
          "internalType": "address",
          "name": "_address",
          "type": "address"
        }
      ],
      "name": "addWhitelist",
      "outputs": [],
      "stateMutability": "nonpayable",
      "type": "function"
    },
    {
      "inputs": [
        {
          "internalType": "uint256",
          "name": "_investAmount",
          "type": "uint256"
        }
      ],
      "name": "buyDDeFIRE",
      "outputs": [],
      "stateMutability": "nonpayable",
      "type": "function"
    },
    {
      "inputs": [
        {
          "internalType": "uint256",
          "name": "_investAmount",
          "type": "uint256"
        }
      ],
      "name": "buyPDeFIRE",
      "outputs": [],
      "stateMutability": "nonpayable",
      "type": "function"
    },
    {
      "inputs": [
        {
          "internalType": "address",
          "name": "_investor",
          "type": "address"
        }
      ],
      "name": "checkInvestorDetails",
      "outputs": [
        {
          "internalType": "uint256",
          "name": "",
          "type": "uint256"
        },
        {
          "internalType": "uint256",
          "name": "",
          "type": "uint256"
        },
        {
          "internalType": "uint256",
          "name": "",
          "type": "uint256"
        }
      ],
      "stateMutability": "view",
      "type": "function"
    },
    {
      "inputs": [],
      "name": "createTime",
      "outputs": [
        {
          "internalType": "uint256",
          "name": "",
          "type": "uint256"
        }
      ],
      "stateMutability": "view",
      "type": "function"
    },
    {
      "inputs": [],
      "name": "currentEpoch",
      "outputs": [
        {
          "internalType": "uint256",
          "name": "",
          "type": "uint256"
        }
      ],
      "stateMutability": "view",
      "type": "function"
    },
    {
      "inputs": [],
      "name": "dTokenPrice",
      "outputs": [
        {
          "internalType": "uint256",
          "name": "",
          "type": "uint256"
        }
      ],
      "stateMutability": "view",
      "type": "function"
    },
    {
      "inputs": [
        {
          "internalType": "bool",
          "name": "_switch",
          "type": "bool"
        }
      ],
      "name": "enableWhitelist",
      "outputs": [],
      "stateMutability": "nonpayable",
      "type": "function"
    },
    {
      "inputs": [],
      "name": "enabledWhitelisting",
      "outputs": [
        {
          "internalType": "bool",
          "name": "",
          "type": "bool"
        }
      ],
      "stateMutability": "view",
      "type": "function"
    },
    {
      "inputs": [],
      "name": "epochTime",
      "outputs": [
        {
          "internalType": "uint256",
          "name": "",
          "type": "uint256"
        }
      ],
      "stateMutability": "view",
      "type": "function"
    },
    {
      "inputs": [],
      "name": "initialBuyAllowance",
      "outputs": [
        {
          "internalType": "uint256",
          "name": "",
          "type": "uint256"
        }
      ],
      "stateMutability": "view",
      "type": "function"
    },
    {
      "inputs": [],
      "name": "investToken",
      "outputs": [
        {
          "internalType": "address",
          "name": "",
          "type": "address"
        }
      ],
      "stateMutability": "view",
      "type": "function"
    },
    {
      "inputs": [],
      "name": "investorCurrentBuyAllowance",
      "outputs": [
        {
          "internalType": "uint256",
          "name": "",
          "type": "uint256"
        }
      ],
      "stateMutability": "view",
      "type": "function"
    },
    {
      "inputs": [
        {
          "internalType": "address",
          "name": "",
          "type": "address"
        }
      ],
      "name": "investorMatrix",
      "outputs": [
        {
          "internalType": "uint256",
          "name": "amountInvested",
          "type": "uint256"
        },
        {
          "internalType": "uint256",
          "name": "pSaleTokens",
          "type": "uint256"
        },
        {
          "internalType": "uint256",
          "name": "pSaleDegenTokens",
          "type": "uint256"
        }
      ],
      "stateMutability": "view",
      "type": "function"
    },
    {
      "inputs": [
        {
          "internalType": "address",
          "name": "_address",
          "type": "address"
        }
      ],
      "name": "isWhitelisted",
      "outputs": [
        {
          "internalType": "bool",
          "name": "",
          "type": "bool"
        }
      ],
      "stateMutability": "view",
      "type": "function"
    },
    {
      "inputs": [],
      "name": "maxBuyAllowance",
      "outputs": [
        {
          "internalType": "uint256",
          "name": "",
          "type": "uint256"
        }
      ],
      "stateMutability": "view",
      "type": "function"
    },
    {
      "inputs": [],
      "name": "maxCapacityDegen",
      "outputs": [
        {
          "internalType": "uint256",
          "name": "",
          "type": "uint256"
        }
      ],
      "stateMutability": "view",
      "type": "function"
    },
    {
      "inputs": [],
      "name": "maxCapacityRegular",
      "outputs": [
        {
          "internalType": "uint256",
          "name": "",
          "type": "uint256"
        }
      ],
      "stateMutability": "view",
      "type": "function"
    },
    {
      "inputs": [],
      "name": "minimumInvestment",
      "outputs": [
        {
          "internalType": "uint256",
          "name": "",
          "type": "uint256"
        }
      ],
      "stateMutability": "view",
      "type": "function"
    },
    {
      "inputs": [],
      "name": "numInvestors",
      "outputs": [
        {
          "internalType": "uint256",
          "name": "",
          "type": "uint256"
        }
      ],
      "stateMutability": "view",
      "type": "function"
    },
    {
      "inputs": [],
      "name": "owner",
      "outputs": [
        {
          "internalType": "address",
          "name": "",
          "type": "address"
        }
      ],
      "stateMutability": "view",
      "type": "function"
    },
    {
      "inputs": [],
      "name": "pDuration",
      "outputs": [
        {
          "internalType": "uint256",
          "name": "",
          "type": "uint256"
        }
      ],
      "stateMutability": "view",
      "type": "function"
    },
    {
      "inputs": [],
      "name": "pEndTime",
      "outputs": [
        {
          "internalType": "uint256",
          "name": "",
          "type": "uint256"
        }
      ],
      "stateMutability": "view",
      "type": "function"
    },
    {
      "inputs": [],
      "name": "pSaleToken",
      "outputs": [
        {
          "internalType": "address",
          "name": "",
          "type": "address"
        }
      ],
      "stateMutability": "view",
      "type": "function"
    },
    {
      "inputs": [],
      "name": "pSaleTokenDegen",
      "outputs": [
        {
          "internalType": "address",
          "name": "",
          "type": "address"
        }
      ],
      "stateMutability": "view",
      "type": "function"
    },
    {
      "inputs": [],
      "name": "pStartTime",
      "outputs": [
        {
          "internalType": "uint256",
          "name": "",
          "type": "uint256"
        }
      ],
      "stateMutability": "view",
      "type": "function"
    },
    {
      "inputs": [],
      "name": "pTokenPrice",
      "outputs": [
        {
          "internalType": "uint256",
          "name": "",
          "type": "uint256"
        }
      ],
      "stateMutability": "view",
      "type": "function"
    },
    {
      "inputs": [
        {
          "internalType": "address",
          "name": "_address",
          "type": "address"
        }
      ],
      "name": "removeWhitelist",
      "outputs": [],
      "stateMutability": "nonpayable",
      "type": "function"
    },
    {
      "inputs": [],
      "name": "renounceOwnership",
      "outputs": [],
      "stateMutability": "nonpayable",
      "type": "function"
    },
    {
      "inputs": [
        {
          "internalType": "address",
          "name": "newOwner",
          "type": "address"
        }
      ],
      "name": "transferOwnership",
      "outputs": [],
      "stateMutability": "nonpayable",
      "type": "function"
    },
    {
      "inputs": [],
      "name": "treasuryPDeFIRE",
      "outputs": [
        {
          "internalType": "address",
          "name": "",
          "type": "address"
        }
      ],
      "stateMutability": "view",
      "type": "function"
    },
    {
      "inputs": [
        {
          "internalType": "address",
          "name": "",
          "type": "address"
        }
      ],
      "name": "whitelist",
      "outputs": [
        {
          "internalType": "bool",
          "name": "",
          "type": "bool"
        }
      ],
      "stateMutability": "view",
      "type": "function"
    },
    {
      "inputs": [],
      "name": "whitelisted",
      "outputs": [
        {
          "internalType": "uint256",
          "name": "",
          "type": "uint256"
        }
      ],
      "stateMutability": "view",
      "type": "function"
    },
    {
      "inputs": [],
      "name": "withdrawInvestmentToTreasury",
      "outputs": [],
      "stateMutability": "nonpayable",
      "type": "function"
    },
    {
      "inputs": [],
      "name": "withdrawUnclaimedToTreasury",
      "outputs": [],
      "stateMutability": "nonpayable",
      "type": "function"
    }
  ],
  "bytecode": "0x610140604052600060035560006006556064600c556109c4600d55611388600e5568056bc75e2d63100000600f55680270801d946c9400006010553480156200004757600080fd5b506040516200513a3803806200513a83398181016040528101906200006d919062000641565b6200008d620000816200051760201b60201c565b6200051f60201b60201c565b6001808190555060008411620000da576040517f08c379a0000000000000000000000000000000000000000000000000000000008152600401620000d19062000989565b60405180910390fd5b6000831162000120576040517f08c379a00000000000000000000000000000000000000000000000000000000081526004016200011790620008bd565b60405180910390fd5b600073ffffffffffffffffffffffffffffffffffffffff168973ffffffffffffffffffffffffffffffffffffffff16141562000193576040517f08c379a00000000000000000000000000000000000000000000000000000000081526004016200018a9062000967565b60405180910390fd5b600073ffffffffffffffffffffffffffffffffffffffff168873ffffffffffffffffffffffffffffffffffffffff16141562000206576040517f08c379a0000000000000000000000000000000000000000000000000000000008152600401620001fd9062000879565b60405180910390fd5b600073ffffffffffffffffffffffffffffffffffffffff168773ffffffffffffffffffffffffffffffffffffffff16141562000279576040517f08c379a00000000000000000000000000000000000000000000000000000000081526004016200027090620008df565b60405180910390fd5b600073ffffffffffffffffffffffffffffffffffffffff168673ffffffffffffffffffffffffffffffffffffffff161415620002ec576040517f08c379a0000000000000000000000000000000000000000000000000000000008152600401620002e39062000923565b60405180910390fd5b6000821162000332576040517f08c379a0000000000000000000000000000000000000000000000000000000008152600401620003299062000901565b60405180910390fd5b6000811162000378576040517f08c379a00000000000000000000000000000000000000000000000000000000081526004016200036f9062000945565b60405180910390fd5b4260078190555083600a8190555084600881905550620003a9600a5484620005e360201b62002abd1790919060201c565b600981905550620003cd600954600854620005fb60201b62002ad31790919060201c565b600b8190555042600b54116200041a576040517f08c379a000000000000000000000000000000000000000000000000000000000815260040162000411906200089b565b60405180910390fd5b8573ffffffffffffffffffffffffffffffffffffffff1660c08173ffffffffffffffffffffffffffffffffffffffff1660601b815250508873ffffffffffffffffffffffffffffffffffffffff1660808173ffffffffffffffffffffffffffffffffffffffff1660601b815250508773ffffffffffffffffffffffffffffffffffffffff1660a08173ffffffffffffffffffffffffffffffffffffffff1660601b815250508673ffffffffffffffffffffffffffffffffffffffff166101208173ffffffffffffffffffffffffffffffffffffffff1660601b815250508160e0818152505080610100818152505050505050505050505062000d24565b600033905090565b60008060009054906101000a900473ffffffffffffffffffffffffffffffffffffffff169050816000806101000a81548173ffffffffffffffffffffffffffffffffffffffff021916908373ffffffffffffffffffffffffffffffffffffffff1602179055508173ffffffffffffffffffffffffffffffffffffffff168173ffffffffffffffffffffffffffffffffffffffff167f8be0079c531659141344cd1fd0a4f28419497f9722a3daafe3b4186f6b6457e060405160405180910390a35050565b60008183620005f3919062000a19565b905092915050565b600081836200060b9190620009bc565b905092915050565b600081519050620006248162000cf0565b92915050565b6000815190506200063b8162000d0a565b92915050565b60008060008060008060008060006101208a8c0312156200066157600080fd5b6000620006718c828d0162000613565b9950506020620006848c828d0162000613565b9850506040620006978c828d0162000613565b9750506060620006aa8c828d0162000613565b9650506080620006bd8c828d016200062a565b95505060a0620006d08c828d016200062a565b94505060c0620006e38c828d016200062a565b93505060e0620006f68c828d016200062a565b9250506101006200070a8c828d016200062a565b9150509295985092959850929598565b600062000729602483620009ab565b9150620007368262000ae7565b604082019050919050565b600062000750601e83620009ab565b91506200075d8262000b36565b602082019050919050565b600062000777601f83620009ab565b9150620007848262000b5f565b602082019050919050565b60006200079e602483620009ab565b9150620007ab8262000b88565b604082019050919050565b6000620007c5602283620009ab565b9150620007d28262000bd7565b604082019050919050565b6000620007ec602083620009ab565b9150620007f98262000c26565b602082019050919050565b600062000813602283620009ab565b9150620008208262000c4f565b604082019050919050565b60006200083a601f83620009ab565b9150620008478262000c9e565b602082019050919050565b600062000861602083620009ab565b91506200086e8262000cc7565b602082019050919050565b6000602082019050818103600083015262000894816200071a565b9050919050565b60006020820190508181036000830152620008b68162000741565b9050919050565b60006020820190508181036000830152620008d88162000768565b9050919050565b60006020820190508181036000830152620008fa816200078f565b9050919050565b600060208201905081810360008301526200091c81620007b6565b9050919050565b600060208201905081810360008301526200093e81620007dd565b9050919050565b60006020820190508181036000830152620009608162000804565b9050919050565b6000602082019050818103600083015262000982816200082b565b9050919050565b60006020820190508181036000830152620009a48162000852565b9050919050565b600082825260208201905092915050565b6000620009c98262000aae565b9150620009d68362000aae565b9250827fffffffffffffffffffffffffffffffffffffffffffffffffffffffffffffffff0382111562000a0e5762000a0d62000ab8565b5b828201905092915050565b600062000a268262000aae565b915062000a338362000aae565b9250817fffffffffffffffffffffffffffffffffffffffffffffffffffffffffffffffff048311821515161562000a6f5762000a6e62000ab8565b5b828202905092915050565b600062000a878262000a8e565b9050919050565b600073ffffffffffffffffffffffffffffffffffffffff82169050919050565b6000819050919050565b7f4e487b7100000000000000000000000000000000000000000000000000000000600052601160045260246000fd5b7f7053616c65546f6b656e446567656e20616464726573732063616e6e6f74206260008201527f6520307800000000000000000000000000000000000000000000000000000000602082015250565b7f456e642054696d65206d75737420626520696e20746865206675747572650000600082015250565b7f6475726174696f6e206d7573742062652067726561746572207468616e203000600082015250565b7f74726561737572795044654649524520616464726573732063616e6e6f74206260008201527f6520307800000000000000000000000000000000000000000000000000000000602082015250565b7f70546f6b656e5072696365206d7573742062652067726561746572207468616e60008201527f2030000000000000000000000000000000000000000000000000000000000000602082015250565b7f696e76657374546f6b656e20616464726573732063616e6e6f74206265203078600082015250565b7f64546f6b656e5072696365206d7573742062652067726561746572207468616e60008201527f2030000000000000000000000000000000000000000000000000000000000000602082015250565b7f7053616c65546f6b656e20616464726573732063616e6e6f7420626520307800600082015250565b7f65706f636854696d65206d7573742062652067726561746572207468616e2030600082015250565b62000cfb8162000a7a565b811462000d0757600080fd5b50565b62000d158162000aae565b811462000d2157600080fd5b50565b60805160601c60a05160601c60c05160601c60e051610100516101205160601c6142e162000e596000396000818161092a0152818161099f01528181610ade01528181610ca8015281816113b90152612050015260008181610b080152818161256c01526125ac01526000818161191b0152818161195b0152611b90015260008181610bfa01528181610cca01528181611515015281816117a00152818161199401528181611c2d01528181611ced01528181611daa015281816121ac015281816123f101526125e501526000818161081e015281816109c101528181610dd101528181611f560152818161249201528181612631015261279e0152600081816107710152818161094c015281816112bf01528181611841015281816119e001528181611bd40152611e4e01526142e16000f3fe608060405234801561001057600080fd5b50600436106102325760003560e01c806376671808116101305780639b19251a116100b8578063e32b91691161007c578063e32b91691461061d578063e3c415781461063b578063ef40adba14610657578063f2fde38b14610675578063f80f5dd51461069157610232565b80639b19251a14610575578063acfe360b146105a5578063b393bf75146105c3578063badf822b146105e1578063de759980146105ff57610232565b80638da5cb5b116100ff5780638da5cb5b146104b75780638daa750d146104d55780638f9bf561146104f3578063919d23c91461052557806399c7d6241461055757610232565b8063766718081461044357806378c8cda71461046157806382c8ffbe1461047d5780638cc01fa61461049957610232565b80633b963c48116101be57806361dcd7ab1161018257806361dcd7ab146103c357806362e2fa8e146103e15780636403350e146103ff578063715018a61461041d578063729413161461042757610232565b80633b963c481461032d5780633c54da251461034b5780633d3f7e90146103695780633d9287fa146103875780635053e461146103a557610232565b8063143d13af11610205578063143d13af146102995780632b925b25146102b757806336c8f3be146102d5578063383e64ac146102f35780633af32abf146102fd57610232565b8063033e5a5814610237578063040b65831461024157806308f9fd6c1461025d578063132ae5e91461027b575b600080fd5b61023f6106ad565b005b61025b60048036038101906102569190613093565b610a43565b005b610265610adc565b604051610272919061354e565b60405180910390f35b610283610b00565b60405161029091906138e1565b60405180910390f35b6102a1610b06565b6040516102ae91906138e1565b60405180910390f35b6102bf610b2a565b6040516102cc91906138e1565b60405180910390f35b6102dd610b30565b6040516102ea91906138e1565b60405180910390f35b6102fb610b36565b005b61031760048036038101906103129190613025565b610d48565b6040516103249190613624565b60405180910390f35b610335610d9e565b60405161034291906138e1565b60405180910390f35b610353610da4565b60405161036091906138e1565b60405180910390f35b610371610daa565b60405161037e9190613624565b60405180910390f35b61038f610dbd565b60405161039c91906138e1565b60405180910390f35b6103ad610dc3565b6040516103ba91906138e1565b60405180910390f35b6103cb610dc9565b6040516103d891906138e1565b60405180910390f35b6103e9610dcf565b6040516103f6919061354e565b60405180910390f35b610407610df3565b60405161041491906138e1565b60405180910390f35b610425610df9565b005b610441600480360381019061043c919061304e565b610e81565b005b61044b6110b2565b60405161045891906138e1565b60405180910390f35b61047b60048036038101906104769190613025565b6110f6565b005b610497600480360381019061049291906130e5565b61126d565b005b6104a1611acb565b6040516104ae91906138e1565b60405180910390f35b6104bf611ad1565b6040516104cc919061354e565b60405180910390f35b6104dd611afa565b6040516104ea91906138e1565b60405180910390f35b61050d60048036038101906105089190613025565b611b00565b60405161051c93929190613925565b60405180910390f35b61053f600480360381019061053a9190613025565b611b2a565b60405161054e93929190613925565b60405180910390f35b61055f611b8e565b60405161056c91906138e1565b60405180910390f35b61058f600480360381019061058a9190613025565b611bb2565b60405161059c9190613624565b60405180910390f35b6105ad611bd2565b6040516105ba919061354e565b60405180910390f35b6105cb611bf6565b6040516105d891906138e1565b60405180910390f35b6105e9611da8565b6040516105f6919061354e565b60405180910390f35b610607611dcc565b60405161061491906138e1565b60405180910390f35b610625611efe565b60405161063291906138e1565b60405180910390f35b610655600480360381019061065091906130e5565b611f04565b005b61065f61271c565b60405161066c91906138e1565b60405180910390f35b61068f600480360381019061068a9190613025565b61284e565b005b6106ab60048036038101906106a69190613025565b612946565b005b6106b5612ae9565b73ffffffffffffffffffffffffffffffffffffffff166106d3611ad1565b73ffffffffffffffffffffffffffffffffffffffff1614610729576040517f08c379a000000000000000000000000000000000000000000000000000000000815260040161072090613721565b60405180910390fd5b600b54421161076d576040517f08c379a000000000000000000000000000000000000000000000000000000000815260040161076490613761565b60405180910390fd5b60007f000000000000000000000000000000000000000000000000000000000000000073ffffffffffffffffffffffffffffffffffffffff166370a08231306040518263ffffffff1660e01b81526004016107c8919061354e565b60206040518083038186803b1580156107e057600080fd5b505afa1580156107f4573d6000803e3d6000fd5b505050506040513d601f19601f82011682018060405250810190610818919061310e565b905060007f000000000000000000000000000000000000000000000000000000000000000073ffffffffffffffffffffffffffffffffffffffff166370a08231306040518263ffffffff1660e01b8152600401610875919061354e565b60206040518083038186803b15801561088d57600080fd5b505afa1580156108a1573d6000803e3d6000fd5b505050506040513d601f19601f820116820180604052508101906108c5919061310e565b905060006108dc8284612ad390919063ffffffff16565b1161091c576040517f08c379a000000000000000000000000000000000000000000000000000000000815260040161091390613681565b60405180910390fd5b6000821115610991576109907f0000000000000000000000000000000000000000000000000000000000000000837f000000000000000000000000000000000000000000000000000000000000000073ffffffffffffffffffffffffffffffffffffffff16612af19092919063ffffffff16565b5b6000811115610a0657610a057f0000000000000000000000000000000000000000000000000000000000000000827f000000000000000000000000000000000000000000000000000000000000000073ffffffffffffffffffffffffffffffffffffffff16612af19092919063ffffffff16565b5b7fc283b5d904c6f00fed8251f09e6a670be15ab545133c234d5644e62fb53928ed8282604051610a379291906138fc565b60405180910390a15050565b610a4b612ae9565b73ffffffffffffffffffffffffffffffffffffffff16610a69611ad1565b73ffffffffffffffffffffffffffffffffffffffff1614610abf576040517f08c379a0000000000000000000000000000000000000000000000000000000008152600401610ab690613721565b60405180910390fd5b80600260006101000a81548160ff02191690831515021790555050565b7f000000000000000000000000000000000000000000000000000000000000000081565b60065481565b7f000000000000000000000000000000000000000000000000000000000000000081565b600c5481565b60085481565b610b3e612ae9565b73ffffffffffffffffffffffffffffffffffffffff16610b5c611ad1565b73ffffffffffffffffffffffffffffffffffffffff1614610bb2576040517f08c379a0000000000000000000000000000000000000000000000000000000008152600401610ba990613721565b60405180910390fd5b600b544211610bf6576040517f08c379a0000000000000000000000000000000000000000000000000000000008152600401610bed90613761565b60405180910390fd5b60007f000000000000000000000000000000000000000000000000000000000000000073ffffffffffffffffffffffffffffffffffffffff166370a08231306040518263ffffffff1660e01b8152600401610c51919061354e565b60206040518083038186803b158015610c6957600080fd5b505afa158015610c7d573d6000803e3d6000fd5b505050506040513d601f19601f82011682018060405250810190610ca1919061310e565b9050610d0e7f0000000000000000000000000000000000000000000000000000000000000000827f000000000000000000000000000000000000000000000000000000000000000073ffffffffffffffffffffffffffffffffffffffff16612af19092919063ffffffff16565b7f2037fcbffcac72d477d6b904c2ee009eaf8176c65b3e0bc62de5764bf01e96c581604051610d3d91906138e1565b60405180910390a150565b6000600460008373ffffffffffffffffffffffffffffffffffffffff1673ffffffffffffffffffffffffffffffffffffffff16815260200190815260200160002060009054906101000a900460ff169050919050565b600e5481565b60095481565b600260009054906101000a900460ff1681565b60035481565b600a5481565b60075481565b7f000000000000000000000000000000000000000000000000000000000000000081565b600b5481565b610e01612ae9565b73ffffffffffffffffffffffffffffffffffffffff16610e1f611ad1565b73ffffffffffffffffffffffffffffffffffffffff1614610e75576040517f08c379a0000000000000000000000000000000000000000000000000000000008152600401610e6c90613721565b60405180910390fd5b610e7f6000612b77565b565b610e89612ae9565b73ffffffffffffffffffffffffffffffffffffffff16610ea7611ad1565b73ffffffffffffffffffffffffffffffffffffffff1614610efd576040517f08c379a0000000000000000000000000000000000000000000000000000000008152600401610ef490613721565b60405180910390fd5b600260009054906101000a900460ff16610f4c576040517f08c379a0000000000000000000000000000000000000000000000000000000008152600401610f4390613661565b60405180910390fd5b611388828290501115610f94576040517f08c379a0000000000000000000000000000000000000000000000000000000008152600401610f8b90613741565b60405180910390fd5b60005b8282905081101561107457600160046000858585818110610fe1577f4e487b7100000000000000000000000000000000000000000000000000000000600052603260045260246000fd5b9050602002016020810190610ff69190613025565b73ffffffffffffffffffffffffffffffffffffffff1673ffffffffffffffffffffffffffffffffffffffff16815260200190815260200160002060006101000a81548160ff02191690831515021790555060016003600082825461105a91906139cd565b92505081905550808061106c90613d26565b915050610f97565b507f0ec25551ce701bd62288711d0d24d0428d591df8d0cd1b1a485c3cf8f875ad5e82826040516110a6929190613600565b60405180910390a15050565b60006008544210156110c757600090506110f3565b6110f0600a546110e260085442612c3b90919063ffffffff16565b612c5190919063ffffffff16565b90505b90565b6110fe612ae9565b73ffffffffffffffffffffffffffffffffffffffff1661111c611ad1565b73ffffffffffffffffffffffffffffffffffffffff1614611172576040517f08c379a000000000000000000000000000000000000000000000000000000000815260040161116990613721565b60405180910390fd5b600260009054906101000a900460ff166111c1576040517f08c379a00000000000000000000000000000000000000000000000000000000081526004016111b890613661565b60405180910390fd5b6000600460008373ffffffffffffffffffffffffffffffffffffffff1673ffffffffffffffffffffffffffffffffffffffff16815260200190815260200160002060006101000a81548160ff02191690831515021790555060016003600082825461122c9190613c6a565b925050819055507fde71a8f227e4d6ad3182c7020da07081ce2d7bd26bf3d392c4050391bfd8a07481604051611262919061354e565b60405180910390a150565b600260015414156112b3576040517f08c379a00000000000000000000000000000000000000000000000000000000081526004016112aa90613881565b60405180910390fd5b600260018190555060007f000000000000000000000000000000000000000000000000000000000000000073ffffffffffffffffffffffffffffffffffffffff166370a08231306040518263ffffffff1660e01b8152600401611316919061354e565b60206040518083038186803b15801561132e57600080fd5b505afa158015611342573d6000803e3d6000fd5b505050506040513d601f19601f82011682018060405250810190611366919061310e565b90506000611372611bf6565b90506000600560003373ffffffffffffffffffffffffffffffffffffffff1673ffffffffffffffffffffffffffffffffffffffff16815260200190815260200160002090507f000000000000000000000000000000000000000000000000000000000000000073ffffffffffffffffffffffffffffffffffffffff163373ffffffffffffffffffffffffffffffffffffffff161415611446576040517f08c379a000000000000000000000000000000000000000000000000000000000815260040161143d90613801565b60405180910390fd5b60085442101561148b576040517f08c379a000000000000000000000000000000000000000000000000000000000815260040161148290613821565b60405180910390fd5b600b5442106114cf576040517f08c379a00000000000000000000000000000000000000000000000000000000081526004016114c6906137e1565b60405180910390fd5b60008311611512576040517f08c379a0000000000000000000000000000000000000000000000000000000008152600401611509906137a1565b60405180910390fd5b837f000000000000000000000000000000000000000000000000000000000000000073ffffffffffffffffffffffffffffffffffffffff166370a08231336040518263ffffffff1660e01b815260040161156c919061354e565b60206040518083038186803b15801561158457600080fd5b505afa158015611598573d6000803e3d6000fd5b505050506040513d601f19601f820116820180604052508101906115bc919061310e565b10156115fd576040517f08c379a00000000000000000000000000000000000000000000000000000000081526004016115f4906136c1565b60405180910390fd5b600f5481600101541115611646576040517f08c379a000000000000000000000000000000000000000000000000000000000815260040161163d90613861565b60405180910390fd5b818410611688576040517f08c379a000000000000000000000000000000000000000000000000000000000815260040161167f90613701565b60405180910390fd5b818160000154106116ce576040517f08c379a00000000000000000000000000000000000000000000000000000000081526004016116c590613701565b60405180910390fd5b600c548411611712576040517f08c379a000000000000000000000000000000000000000000000000000000000815260040161170990613781565b60405180910390fd5b600460003373ffffffffffffffffffffffffffffffffffffffff1673ffffffffffffffffffffffffffffffffffffffff16815260200190815260200160002060009054906101000a900460ff1661179e576040517f08c379a0000000000000000000000000000000000000000000000000000000008152600401611795906138c1565b60405180910390fd5b7f000000000000000000000000000000000000000000000000000000000000000073ffffffffffffffffffffffffffffffffffffffff1663313ce5676040518163ffffffff1660e01b815260040160206040518083038186803b15801561180457600080fd5b505afa158015611818573d6000803e3d6000fd5b505050506040513d601f19601f8201168201806040525081019061183c9190613137565b60ff167f000000000000000000000000000000000000000000000000000000000000000073ffffffffffffffffffffffffffffffffffffffff1663313ce5676040518163ffffffff1660e01b815260040160206040518083038186803b1580156118a557600080fd5b505afa1580156118b9573d6000803e3d6000fd5b505050506040513d601f19601f820116820180604052508101906118dd9190613137565b60ff1614611914577f4e487b7100000000000000000000000000000000000000000000000000000000600052600160045260246000fd5b60006119497f000000000000000000000000000000000000000000000000000000000000000086612c5190919063ffffffff16565b90508381111561198c578390506119897f000000000000000000000000000000000000000000000000000000000000000082612abd90919063ffffffff16565b94505b6119d93330877f000000000000000000000000000000000000000000000000000000000000000073ffffffffffffffffffffffffffffffffffffffff16612c67909392919063ffffffff16565b611a2433827f000000000000000000000000000000000000000000000000000000000000000073ffffffffffffffffffffffffffffffffffffffff16612af19092919063ffffffff16565b600082600001541415611a4c57600160066000828254611a4491906139cd565b925050819055505b84826000016000828254611a6091906139cd565b9250508190555080826001016000828254611a7b91906139cd565b925050819055507f939e0ebdbf79125002976cb7e4ff14ba0182c518528dd466384b60fb2466624b338683604051611ab5939291906135c9565b60405180910390a1505050506001808190555050565b60105481565b60008060009054906101000a900473ffffffffffffffffffffffffffffffffffffffff16905090565b600d5481565b60056020528060005260406000206000915090508060000154908060010154908060020154905083565b600080600080600560008673ffffffffffffffffffffffffffffffffffffffff1673ffffffffffffffffffffffffffffffffffffffff1681526020019081526020016000209050806001015481600201548260000154935093509350509193909250565b7f000000000000000000000000000000000000000000000000000000000000000081565b60046020528060005260406000206000915054906101000a900460ff1681565b7f000000000000000000000000000000000000000000000000000000000000000081565b600080611c016110b2565b90506000816002611c129190613aa7565b600d54611c1f9190613c10565b9050600e54811115611ceb577f000000000000000000000000000000000000000000000000000000000000000073ffffffffffffffffffffffffffffffffffffffff1663313ce5676040518163ffffffff1660e01b815260040160206040518083038186803b158015611c9157600080fd5b505afa158015611ca5573d6000803e3d6000fd5b505050506040513d601f19601f82011682018060405250810190611cc99190613137565b600a611cd59190613af2565b600e54611ce29190613c10565b92505050611da5565b7f000000000000000000000000000000000000000000000000000000000000000073ffffffffffffffffffffffffffffffffffffffff1663313ce5676040518163ffffffff1660e01b815260040160206040518083038186803b158015611d5157600080fd5b505afa158015611d65573d6000803e3d6000fd5b505050506040513d601f19601f82011682018060405250810190611d899190613137565b600a611d959190613af2565b81611da09190613c10565b925050505b90565b7f000000000000000000000000000000000000000000000000000000000000000081565b6000611dd6612ae9565b73ffffffffffffffffffffffffffffffffffffffff16611df4611ad1565b73ffffffffffffffffffffffffffffffffffffffff1614611e4a576040517f08c379a0000000000000000000000000000000000000000000000000000000008152600401611e4190613721565b60405180910390fd5b60007f000000000000000000000000000000000000000000000000000000000000000073ffffffffffffffffffffffffffffffffffffffff166370a08231306040518263ffffffff1660e01b8152600401611ea5919061354e565b60206040518083038186803b158015611ebd57600080fd5b505afa158015611ed1573d6000803e3d6000fd5b505050506040513d601f19601f82011682018060405250810190611ef5919061310e565b90508091505090565b600f5481565b60026001541415611f4a576040517f08c379a0000000000000000000000000000000000000000000000000000000008152600401611f4190613881565b60405180910390fd5b600260018190555060007f000000000000000000000000000000000000000000000000000000000000000073ffffffffffffffffffffffffffffffffffffffff166370a08231306040518263ffffffff1660e01b8152600401611fad919061354e565b60206040518083038186803b158015611fc557600080fd5b505afa158015611fd9573d6000803e3d6000fd5b505050506040513d601f19601f82011682018060405250810190611ffd919061310e565b90506000612009611bf6565b90506000600560003373ffffffffffffffffffffffffffffffffffffffff1673ffffffffffffffffffffffffffffffffffffffff16815260200190815260200160002090507f000000000000000000000000000000000000000000000000000000000000000073ffffffffffffffffffffffffffffffffffffffff163373ffffffffffffffffffffffffffffffffffffffff1614156120dd576040517f08c379a00000000000000000000000000000000000000000000000000000000081526004016120d490613801565b60405180910390fd5b600854421015612122576040517f08c379a000000000000000000000000000000000000000000000000000000000815260040161211990613821565b60405180910390fd5b600b544210612166576040517f08c379a000000000000000000000000000000000000000000000000000000000815260040161215d906137e1565b60405180910390fd5b600083116121a9576040517f08c379a00000000000000000000000000000000000000000000000000000000081526004016121a0906138a1565b60405180910390fd5b837f000000000000000000000000000000000000000000000000000000000000000073ffffffffffffffffffffffffffffffffffffffff166370a08231336040518263ffffffff1660e01b8152600401612203919061354e565b60206040518083038186803b15801561221b57600080fd5b505afa15801561222f573d6000803e3d6000fd5b505050506040513d601f19601f82011682018060405250810190612253919061310e565b1015612294576040517f08c379a000000000000000000000000000000000000000000000000000000000815260040161228b906136c1565b60405180910390fd5b601054816002015411156122dd576040517f08c379a00000000000000000000000000000000000000000000000000000000081526004016122d490613861565b60405180910390fd5b81841061231f576040517f08c379a000000000000000000000000000000000000000000000000000000000815260040161231690613701565b60405180910390fd5b600c548411612363576040517f08c379a000000000000000000000000000000000000000000000000000000000815260040161235a90613781565b60405180910390fd5b600460003373ffffffffffffffffffffffffffffffffffffffff1673ffffffffffffffffffffffffffffffffffffffff16815260200190815260200160002060009054906101000a900460ff166123ef576040517f08c379a00000000000000000000000000000000000000000000000000000000081526004016123e6906138c1565b60405180910390fd5b7f000000000000000000000000000000000000000000000000000000000000000073ffffffffffffffffffffffffffffffffffffffff1663313ce5676040518163ffffffff1660e01b815260040160206040518083038186803b15801561245557600080fd5b505afa158015612469573d6000803e3d6000fd5b505050506040513d601f19601f8201168201806040525081019061248d9190613137565b60ff167f000000000000000000000000000000000000000000000000000000000000000073ffffffffffffffffffffffffffffffffffffffff1663313ce5676040518163ffffffff1660e01b815260040160206040518083038186803b1580156124f657600080fd5b505afa15801561250a573d6000803e3d6000fd5b505050506040513d601f19601f8201168201806040525081019061252e9190613137565b60ff1614612565577f4e487b7100000000000000000000000000000000000000000000000000000000600052600160045260246000fd5b600061259a7f000000000000000000000000000000000000000000000000000000000000000086612c5190919063ffffffff16565b9050838111156125dd578390506125da7f000000000000000000000000000000000000000000000000000000000000000082612abd90919063ffffffff16565b94505b61262a3330877f000000000000000000000000000000000000000000000000000000000000000073ffffffffffffffffffffffffffffffffffffffff16612c67909392919063ffffffff16565b61267533827f000000000000000000000000000000000000000000000000000000000000000073ffffffffffffffffffffffffffffffffffffffff16612af19092919063ffffffff16565b60008260000154141561269d5760016006600082825461269591906139cd565b925050819055505b848260000160008282546126b191906139cd565b92505081905550808260020160008282546126cc91906139cd565b925050819055507fe399e22584405854c5a9d53d8d75dbb6c38d8923e000ebe95d39f917c14afb1c338683604051612706939291906135c9565b60405180910390a1505050506001808190555050565b6000612726612ae9565b73ffffffffffffffffffffffffffffffffffffffff16612744611ad1565b73ffffffffffffffffffffffffffffffffffffffff161461279a576040517f08c379a000000000000000000000000000000000000000000000000000000000815260040161279190613721565b60405180910390fd5b60007f000000000000000000000000000000000000000000000000000000000000000073ffffffffffffffffffffffffffffffffffffffff166370a08231306040518263ffffffff1660e01b81526004016127f5919061354e565b60206040518083038186803b15801561280d57600080fd5b505afa158015612821573d6000803e3d6000fd5b505050506040513d601f19601f82011682018060405250810190612845919061310e565b90508091505090565b612856612ae9565b73ffffffffffffffffffffffffffffffffffffffff16612874611ad1565b73ffffffffffffffffffffffffffffffffffffffff16146128ca576040517f08c379a00000000000000000000000000000000000000000000000000000000081526004016128c190613721565b60405180910390fd5b600073ffffffffffffffffffffffffffffffffffffffff168173ffffffffffffffffffffffffffffffffffffffff16141561293a576040517f08c379a0000000000000000000000000000000000000000000000000000000008152600401612931906136a1565b60405180910390fd5b61294381612b77565b50565b61294e612ae9565b73ffffffffffffffffffffffffffffffffffffffff1661296c611ad1565b73ffffffffffffffffffffffffffffffffffffffff16146129c2576040517f08c379a00000000000000000000000000000000000000000000000000000000081526004016129b990613721565b60405180910390fd5b600260009054906101000a900460ff16612a11576040517f08c379a0000000000000000000000000000000000000000000000000000000008152600401612a0890613661565b60405180910390fd5b6001600460008373ffffffffffffffffffffffffffffffffffffffff1673ffffffffffffffffffffffffffffffffffffffff16815260200190815260200160002060006101000a81548160ff021916908315150217905550600160036000828254612a7c91906139cd565b925050819055507fb1ad5dd77155fd179efed2d4b1ddf60bb5720e09da3cdf0724689eaddebedce981604051612ab2919061354e565b60405180910390a150565b60008183612acb9190613c10565b905092915050565b60008183612ae191906139cd565b905092915050565b600033905090565b612b728363a9059cbb60e01b8484604051602401612b109291906135a0565b604051602081830303815290604052907bffffffffffffffffffffffffffffffffffffffffffffffffffffffff19166020820180517bffffffffffffffffffffffffffffffffffffffffffffffffffffffff8381831617835250505050612cf0565b505050565b60008060009054906101000a900473ffffffffffffffffffffffffffffffffffffffff169050816000806101000a81548173ffffffffffffffffffffffffffffffffffffffff021916908373ffffffffffffffffffffffffffffffffffffffff1602179055508173ffffffffffffffffffffffffffffffffffffffff168173ffffffffffffffffffffffffffffffffffffffff167f8be0079c531659141344cd1fd0a4f28419497f9722a3daafe3b4186f6b6457e060405160405180910390a35050565b60008183612c499190613c6a565b905092915050565b60008183612c5f9190613a23565b905092915050565b612cea846323b872dd60e01b858585604051602401612c8893929190613569565b604051602081830303815290604052907bffffffffffffffffffffffffffffffffffffffffffffffffffffffff19166020820180517bffffffffffffffffffffffffffffffffffffffffffffffffffffffff8381831617835250505050612cf0565b50505050565b6000612d52826040518060400160405280602081526020017f5361666545524332303a206c6f772d6c6576656c2063616c6c206661696c65648152508573ffffffffffffffffffffffffffffffffffffffff16612db79092919063ffffffff16565b9050600081511115612db25780806020019051810190612d7291906130bc565b612db1576040517f08c379a0000000000000000000000000000000000000000000000000000000008152600401612da890613841565b60405180910390fd5b5b505050565b6060612dc68484600085612dcf565b90509392505050565b606082471015612e14576040517f08c379a0000000000000000000000000000000000000000000000000000000008152600401612e0b906136e1565b60405180910390fd5b612e1d85612ee3565b612e5c576040517f08c379a0000000000000000000000000000000000000000000000000000000008152600401612e53906137c1565b60405180910390fd5b6000808673ffffffffffffffffffffffffffffffffffffffff168587604051612e859190613537565b60006040518083038185875af1925050503d8060008114612ec2576040519150601f19603f3d011682016040523d82523d6000602084013e612ec7565b606091505b5091509150612ed7828286612ef6565b92505050949350505050565b600080823b905060008111915050919050565b60608315612f0657829050612f56565b600083511115612f195782518084602001fd5b816040517f08c379a0000000000000000000000000000000000000000000000000000000008152600401612f4d919061363f565b60405180910390fd5b9392505050565b600081359050612f6c8161424f565b92915050565b60008083601f840112612f8457600080fd5b8235905067ffffffffffffffff811115612f9d57600080fd5b602083019150836020820283011115612fb557600080fd5b9250929050565b600081359050612fcb81614266565b92915050565b600081519050612fe081614266565b92915050565b600081359050612ff58161427d565b92915050565b60008151905061300a8161427d565b92915050565b60008151905061301f81614294565b92915050565b60006020828403121561303757600080fd5b600061304584828501612f5d565b91505092915050565b6000806020838503121561306157600080fd5b600083013567ffffffffffffffff81111561307b57600080fd5b61308785828601612f72565b92509250509250929050565b6000602082840312156130a557600080fd5b60006130b384828501612fbc565b91505092915050565b6000602082840312156130ce57600080fd5b60006130dc84828501612fd1565b91505092915050565b6000602082840312156130f757600080fd5b600061310584828501612fe6565b91505092915050565b60006020828403121561312057600080fd5b600061312e84828501612ffb565b91505092915050565b60006020828403121561314957600080fd5b600061315784828501613010565b91505092915050565b600061316c8383613178565b60208301905092915050565b61318181613c9e565b82525050565b61319081613c9e565b82525050565b60006131a28385613989565b93506131ad8261395c565b8060005b858110156131e6576131c382846139b6565b6131cd8882613160565b97506131d88361397c565b9250506001810190506131b1565b5085925050509392505050565b6131fc81613cb0565b82525050565b600061320d82613966565b613217818561399a565b9350613227818560208601613cf3565b80840191505092915050565b600061323e82613971565b61324881856139a5565b9350613258818560208601613cf3565b61326181613dcd565b840191505092915050565b60006132796018836139a5565b915061328482613deb565b602082019050919050565b600061329c601d836139a5565b91506132a782613e14565b602082019050919050565b60006132bf6026836139a5565b91506132ca82613e3d565b604082019050919050565b60006132e2601c836139a5565b91506132ed82613e8c565b602082019050919050565b60006133056026836139a5565b915061331082613eb5565b604082019050919050565b60006133286023836139a5565b915061333382613f04565b604082019050919050565b600061334b6020836139a5565b915061335682613f53565b602082019050919050565b600061336e6019836139a5565b915061337982613f7c565b602082019050919050565b60006133916019836139a5565b915061339c82613fa5565b602082019050919050565b60006133b46018836139a5565b91506133bf82613fce565b602082019050919050565b60006133d76014836139a5565b91506133e282613ff7565b602082019050919050565b60006133fa601d836139a5565b915061340582614020565b602082019050919050565b600061341d602e836139a5565b915061342882614049565b604082019050919050565b6000613440602a836139a5565b915061344b82614098565b604082019050919050565b6000613463603e836139a5565b915061346e826140e7565b604082019050919050565b6000613486602a836139a5565b915061349182614136565b604082019050919050565b60006134a96031836139a5565b91506134b482614185565b604082019050919050565b60006134cc601f836139a5565b91506134d7826141d4565b602082019050919050565b60006134ef6014836139a5565b91506134fa826141fd565b602082019050919050565b6000613512601e836139a5565b915061351d82614226565b602082019050919050565b61353181613cdc565b82525050565b60006135438284613202565b915081905092915050565b60006020820190506135636000830184613187565b92915050565b600060608201905061357e6000830186613187565b61358b6020830185613187565b6135986040830184613528565b949350505050565b60006040820190506135b56000830185613187565b6135c26020830184613528565b9392505050565b60006060820190506135de6000830186613187565b6135eb6020830185613528565b6135f86040830184613528565b949350505050565b6000602082019050818103600083015261361b818486613196565b90509392505050565b600060208201905061363960008301846131f3565b92915050565b600060208201905081810360008301526136598184613233565b905092915050565b6000602082019050818103600083015261367a8161326c565b9050919050565b6000602082019050818103600083015261369a8161328f565b9050919050565b600060208201905081810360008301526136ba816132b2565b9050919050565b600060208201905081810360008301526136da816132d5565b9050919050565b600060208201905081810360008301526136fa816132f8565b9050919050565b6000602082019050818103600083015261371a8161331b565b9050919050565b6000602082019050818103600083015261373a8161333e565b9050919050565b6000602082019050818103600083015261375a81613361565b9050919050565b6000602082019050818103600083015261377a81613384565b9050919050565b6000602082019050818103600083015261379a816133a7565b9050919050565b600060208201905081810360008301526137ba816133ca565b9050919050565b600060208201905081810360008301526137da816133ed565b9050919050565b600060208201905081810360008301526137fa81613410565b9050919050565b6000602082019050818103600083015261381a81613433565b9050919050565b6000602082019050818103600083015261383a81613456565b9050919050565b6000602082019050818103600083015261385a81613479565b9050919050565b6000602082019050818103600083015261387a8161349c565b9050919050565b6000602082019050818103600083015261389a816134bf565b9050919050565b600060208201905081810360008301526138ba816134e2565b9050919050565b600060208201905081810360008301526138da81613505565b9050919050565b60006020820190506138f66000830184613528565b92915050565b60006040820190506139116000830185613528565b61391e6020830184613528565b9392505050565b600060608201905061393a6000830186613528565b6139476020830185613528565b6139546040830184613528565b949350505050565b6000819050919050565b600081519050919050565b600081519050919050565b6000602082019050919050565b600082825260208201905092915050565b600081905092915050565b600082825260208201905092915050565b60006139c56020840184612f5d565b905092915050565b60006139d882613cdc565b91506139e383613cdc565b9250827fffffffffffffffffffffffffffffffffffffffffffffffffffffffffffffffff03821115613a1857613a17613d6f565b5b828201905092915050565b6000613a2e82613cdc565b9150613a3983613cdc565b925082613a4957613a48613d9e565b5b828204905092915050565b6000808291508390505b6001851115613a9e57808604811115613a7a57613a79613d6f565b5b6001851615613a895780820291505b8081029050613a9785613dde565b9450613a5e565b94509492505050565b6000613ab282613cdc565b9150613abd83613cdc565b9250613aea7fffffffffffffffffffffffffffffffffffffffffffffffffffffffffffffffff8484613b3d565b905092915050565b6000613afd82613cdc565b9150613b0883613ce6565b9250613b357fffffffffffffffffffffffffffffffffffffffffffffffffffffffffffffffff8484613b3d565b905092915050565b600082613b4d5760019050613c09565b81613b5b5760009050613c09565b8160018114613b715760028114613b7b57613baa565b6001915050613c09565b60ff841115613b8d57613b8c613d6f565b5b8360020a915084821115613ba457613ba3613d6f565b5b50613c09565b5060208310610133831016604e8410600b8410161715613bdf5782820a905083811115613bda57613bd9613d6f565b5b613c09565b613bec8484846001613a54565b92509050818404811115613c0357613c02613d6f565b5b81810290505b9392505050565b6000613c1b82613cdc565b9150613c2683613cdc565b9250817fffffffffffffffffffffffffffffffffffffffffffffffffffffffffffffffff0483118215151615613c5f57613c5e613d6f565b5b828202905092915050565b6000613c7582613cdc565b9150613c8083613cdc565b925082821015613c9357613c92613d6f565b5b828203905092915050565b6000613ca982613cbc565b9050919050565b60008115159050919050565b600073ffffffffffffffffffffffffffffffffffffffff82169050919050565b6000819050919050565b600060ff82169050919050565b60005b83811015613d11578082015181840152602081019050613cf6565b83811115613d20576000848401525b50505050565b6000613d3182613cdc565b91507fffffffffffffffffffffffffffffffffffffffffffffffffffffffffffffffff821415613d6457613d63613d6f565b5b600182019050919050565b7f4e487b7100000000000000000000000000000000000000000000000000000000600052601160045260246000fd5b7f4e487b7100000000000000000000000000000000000000000000000000000000600052601260045260246000fd5b6000601f19601f8301169050919050565b60008160011c9050919050565b7f77686974656c697374696e67206e6f7420656e61626c65640000000000000000600082015250565b7f4e6f20756e636c61696d656420746f6b656e732c206e696365206a6f62000000600082015250565b7f4f776e61626c653a206e6577206f776e657220697320746865207a65726f206160008201527f6464726573730000000000000000000000000000000000000000000000000000602082015250565b7f4e6f7420656e6f7567682062616c616e636520746f20696e7665737400000000600082015250565b7f416464726573733a20696e73756666696369656e742062616c616e636520666f60008201527f722063616c6c0000000000000000000000000000000000000000000000000000602082015250565b7f726561636865642062757920616c6c6f77616e6365206c696d697420666f722060008201527f6e6f770000000000000000000000000000000000000000000000000000000000602082015250565b7f4f776e61626c653a2063616c6c6572206973206e6f7420746865206f776e6572600082015250565b7f6a657375732c20746f6f206d616e792061646472657373657300000000000000600082015250565b7f50726573616c65206861736e277420656e646564207965742100000000000000600082015250565b7f62656c6f77206d696e696d756d20696e766573746d656e740000000000000000600082015250565b7f4e6f206d6f7265207046414952206c6566742021000000000000000000000000600082015250565b7f416464726573733a2063616c6c20746f206e6f6e2d636f6e7472616374000000600082015250565b7f50726573616c652068617320656e64656421205468616e6b20796f7520666f7260008201527f20796f757220737570706f727421000000000000000000000000000000000000602082015250565b7f547265617375727920616464726573732063616e6e6f742070617274616b652060008201527f696e2070726573616c6500000000000000000000000000000000000000000000602082015250565b7f50726573616c65206861736e27742073746172746564207965742c20676f6f6460008201527f207468696e677320636f6d6520746f2074686f73652077686f20776169740000602082015250565b7f5361666545524332303a204552433230206f7065726174696f6e20646964206e60008201527f6f74207375636365656400000000000000000000000000000000000000000000602082015250565b7f596f752068617665207265616368656420796f7572206d61782063617061636960008201527f747920666f72207468697320746f6b656e000000000000000000000000000000602082015250565b7f5265656e7472616e637947756172643a207265656e7472616e742063616c6c00600082015250565b7f4e6f206d6f7265206446414952206c6566742021000000000000000000000000600082015250565b7f696e766573746f72206e6f7420696e207468652077686974656c697374210000600082015250565b61425881613c9e565b811461426357600080fd5b50565b61426f81613cb0565b811461427a57600080fd5b50565b61428681613cdc565b811461429157600080fd5b50565b61429d81613ce6565b81146142a857600080fd5b5056fea26469706673582212209cb21ab6c58bfb47c54d9f48ed817edbfb968f5dabdba9f644fdac9ed29f527a64736f6c63430008040033",
  "linkReferences": {},
  "deployedLinkReferences": {}
}